0000001LETICIA CANDIDO               10001000090014F
0000002JOHN LENNON                   08000700020014M
0000003DARON MALAKIAN                10001000100020M
0000004PAUL MCCARTNEY                10001000100010M
0000005MADONNA                       10000400090014F
0000006VALERII CHUBENKO              05001000090014M